{
  "contractName": "Terrain",
  "abi": [
    {
      "inputs": [
        {
          "internalType": "string",
          "name": "_name",
          "type": "string"
        },
        {
          "internalType": "string",
          "name": "_symbol",
          "type": "string"
        },
        {
          "internalType": "uint256",
          "name": "_cost",
          "type": "uint256"
        }
      ],
      "stateMutability": "nonpayable",
      "type": "constructor"
    },
    {
      "anonymous": false,
      "inputs": [
        {
          "indexed": true,
          "internalType": "address",
          "name": "owner",
          "type": "address"
        },
        {
          "indexed": true,
          "internalType": "address",
          "name": "approved",
          "type": "address"
        },
        {
          "indexed": true,
          "internalType": "uint256",
          "name": "tokenId",
          "type": "uint256"
        }
      ],
      "name": "Approval",
      "type": "event"
    },
    {
      "anonymous": false,
      "inputs": [
        {
          "indexed": true,
          "internalType": "address",
          "name": "owner",
          "type": "address"
        },
        {
          "indexed": true,
          "internalType": "address",
          "name": "operator",
          "type": "address"
        },
        {
          "indexed": false,
          "internalType": "bool",
          "name": "approved",
          "type": "bool"
        }
      ],
      "name": "ApprovalForAll",
      "type": "event"
    },
    {
      "anonymous": false,
      "inputs": [
        {
          "indexed": true,
          "internalType": "address",
          "name": "from",
          "type": "address"
        },
        {
          "indexed": true,
          "internalType": "address",
          "name": "to",
          "type": "address"
        },
        {
          "indexed": true,
          "internalType": "uint256",
          "name": "tokenId",
          "type": "uint256"
        }
      ],
      "name": "Transfer",
      "type": "event"
    },
    {
      "inputs": [
        {
          "internalType": "address",
          "name": "to",
          "type": "address"
        },
        {
          "internalType": "uint256",
          "name": "tokenId",
          "type": "uint256"
        }
      ],
      "name": "approve",
      "outputs": [],
      "stateMutability": "nonpayable",
      "type": "function"
    },
    {
      "inputs": [
        {
          "internalType": "address",
          "name": "owner",
          "type": "address"
        }
      ],
      "name": "balanceOf",
      "outputs": [
        {
          "internalType": "uint256",
          "name": "",
          "type": "uint256"
        }
      ],
      "stateMutability": "view",
      "type": "function",
      "constant": true
    },
    {
      "inputs": [],
      "name": "cost",
      "outputs": [
        {
          "internalType": "uint256",
          "name": "",
          "type": "uint256"
        }
      ],
      "stateMutability": "view",
      "type": "function",
      "constant": true
    },
    {
      "inputs": [
        {
          "internalType": "uint256",
          "name": "tokenId",
          "type": "uint256"
        }
      ],
      "name": "getApproved",
      "outputs": [
        {
          "internalType": "address",
          "name": "",
          "type": "address"
        }
      ],
      "stateMutability": "view",
      "type": "function",
      "constant": true
    },
    {
      "inputs": [
        {
          "internalType": "uint256",
          "name": "",
          "type": "uint256"
        }
      ],
      "name": "houses",
      "outputs": [
        {
          "internalType": "string",
          "name": "name",
          "type": "string"
        },
        {
          "internalType": "address",
          "name": "owner",
          "type": "address"
        },
        {
          "internalType": "int256",
          "name": "posX",
          "type": "int256"
        },
        {
          "internalType": "int256",
          "name": "posY",
          "type": "int256"
        },
        {
          "internalType": "int256",
          "name": "posZ",
          "type": "int256"
        },
        {
          "internalType": "uint256",
          "name": "sizeX",
          "type": "uint256"
        },
        {
          "internalType": "uint256",
          "name": "sizeY",
          "type": "uint256"
        },
        {
          "internalType": "uint256",
          "name": "sizeZ",
          "type": "uint256"
        }
      ],
      "stateMutability": "view",
      "type": "function",
      "constant": true
    },
    {
      "inputs": [
        {
          "internalType": "address",
          "name": "owner",
          "type": "address"
        },
        {
          "internalType": "address",
          "name": "operator",
          "type": "address"
        }
      ],
      "name": "isApprovedForAll",
      "outputs": [
        {
          "internalType": "bool",
          "name": "",
          "type": "bool"
        }
      ],
      "stateMutability": "view",
      "type": "function",
      "constant": true
    },
    {
      "inputs": [],
      "name": "maxSupply",
      "outputs": [
        {
          "internalType": "uint256",
          "name": "",
          "type": "uint256"
        }
      ],
      "stateMutability": "view",
      "type": "function",
      "constant": true
    },
    {
      "inputs": [],
      "name": "name",
      "outputs": [
        {
          "internalType": "string",
          "name": "",
          "type": "string"
        }
      ],
      "stateMutability": "view",
      "type": "function",
      "constant": true
    },
    {
      "inputs": [
        {
          "internalType": "uint256",
          "name": "tokenId",
          "type": "uint256"
        }
      ],
      "name": "ownerOf",
      "outputs": [
        {
          "internalType": "address",
          "name": "",
          "type": "address"
        }
      ],
      "stateMutability": "view",
      "type": "function",
      "constant": true
    },
    {
      "inputs": [
        {
          "internalType": "address",
          "name": "from",
          "type": "address"
        },
        {
          "internalType": "address",
          "name": "to",
          "type": "address"
        },
        {
          "internalType": "uint256",
          "name": "tokenId",
          "type": "uint256"
        }
      ],
      "name": "safeTransferFrom",
      "outputs": [],
      "stateMutability": "nonpayable",
      "type": "function"
    },
    {
      "inputs": [
        {
          "internalType": "address",
          "name": "from",
          "type": "address"
        },
        {
          "internalType": "address",
          "name": "to",
          "type": "address"
        },
        {
          "internalType": "uint256",
          "name": "tokenId",
          "type": "uint256"
        },
        {
          "internalType": "bytes",
          "name": "data",
          "type": "bytes"
        }
      ],
      "name": "safeTransferFrom",
      "outputs": [],
      "stateMutability": "nonpayable",
      "type": "function"
    },
    {
      "inputs": [
        {
          "internalType": "address",
          "name": "operator",
          "type": "address"
        },
        {
          "internalType": "bool",
          "name": "approved",
          "type": "bool"
        }
      ],
      "name": "setApprovalForAll",
      "outputs": [],
      "stateMutability": "nonpayable",
      "type": "function"
    },
    {
      "inputs": [
        {
          "internalType": "bytes4",
          "name": "interfaceId",
          "type": "bytes4"
        }
      ],
      "name": "supportsInterface",
      "outputs": [
        {
          "internalType": "bool",
          "name": "",
          "type": "bool"
        }
      ],
      "stateMutability": "view",
      "type": "function",
      "constant": true
    },
    {
      "inputs": [],
      "name": "symbol",
      "outputs": [
        {
          "internalType": "string",
          "name": "",
          "type": "string"
        }
      ],
      "stateMutability": "view",
      "type": "function",
      "constant": true
    },
    {
      "inputs": [
        {
          "internalType": "uint256",
          "name": "tokenId",
          "type": "uint256"
        }
      ],
      "name": "tokenURI",
      "outputs": [
        {
          "internalType": "string",
          "name": "",
          "type": "string"
        }
      ],
      "stateMutability": "view",
      "type": "function",
      "constant": true
    },
    {
      "inputs": [],
      "name": "totalSupply",
      "outputs": [
        {
          "internalType": "uint256",
          "name": "",
          "type": "uint256"
        }
      ],
      "stateMutability": "view",
      "type": "function",
      "constant": true
    },
    {
      "inputs": [
        {
          "internalType": "uint256",
          "name": "_id",
          "type": "uint256"
        }
      ],
      "name": "mint",
      "outputs": [],
      "stateMutability": "payable",
      "type": "function",
      "payable": true
    },
    {
      "inputs": [
        {
          "internalType": "address",
          "name": "from",
          "type": "address"
        },
        {
          "internalType": "address",
          "name": "to",
          "type": "address"
        },
        {
          "internalType": "uint256",
          "name": "tokenId",
          "type": "uint256"
        }
      ],
      "name": "transferFrom",
      "outputs": [],
      "stateMutability": "nonpayable",
      "type": "function"
    },
    {
      "inputs": [],
      "name": "getHouses",
      "outputs": [
        {
          "components": [
            {
              "internalType": "string",
              "name": "name",
              "type": "string"
            },
            {
              "internalType": "address",
              "name": "owner",
              "type": "address"
            },
            {
              "internalType": "int256",
              "name": "posX",
              "type": "int256"
            },
            {
              "internalType": "int256",
              "name": "posY",
              "type": "int256"
            },
            {
              "internalType": "int256",
              "name": "posZ",
              "type": "int256"
            },
            {
              "internalType": "uint256",
              "name": "sizeX",
              "type": "uint256"
            },
            {
              "internalType": "uint256",
              "name": "sizeY",
              "type": "uint256"
            },
            {
              "internalType": "uint256",
              "name": "sizeZ",
              "type": "uint256"
            }
          ],
          "internalType": "struct Terrain.House[]",
          "name": "",
          "type": "tuple[]"
        }
      ],
      "stateMutability": "view",
      "type": "function",
      "constant": true
    },
    {
      "inputs": [
        {
          "internalType": "uint256",
          "name": "_id",
          "type": "uint256"
        }
      ],
      "name": "getHouse",
      "outputs": [
        {
          "components": [
            {
              "internalType": "string",
              "name": "name",
              "type": "string"
            },
            {
              "internalType": "address",
              "name": "owner",
              "type": "address"
            },
            {
              "internalType": "int256",
              "name": "posX",
              "type": "int256"
            },
            {
              "internalType": "int256",
              "name": "posY",
              "type": "int256"
            },
            {
              "internalType": "int256",
              "name": "posZ",
              "type": "int256"
            },
            {
              "internalType": "uint256",
              "name": "sizeX",
              "type": "uint256"
            },
            {
              "internalType": "uint256",
              "name": "sizeY",
              "type": "uint256"
            },
            {
              "internalType": "uint256",
              "name": "sizeZ",
              "type": "uint256"
            }
          ],
          "internalType": "struct Terrain.House",
          "name": "",
          "type": "tuple"
        }
      ],
      "stateMutability": "view",
      "type": "function",
      "constant": true
    }
  ],
  "bytecode": "0x6080604052670de0b6b3a7640000600655600560075560006008553480156200002757600080fd5b5060405162003b0838038062003b0883398181016040528101906200004d9190620005dd565b8282816000908051906020019062000067929190620004a4565b50806001908051906020019062000080929190620004a4565b5050508060068190555060096040518061010001604052806040518060400160405280600881526020017f4d6169736f6e20310000000000000000000000000000000000000000000000008152508152602001600073ffffffffffffffffffffffffffffffffffffffff168152602001600081526020016000815260200160008152602001600a8152602001600a8152602001600a815250908060018154018082558091505060019003906000526020600020906008020160009091909190915060008201518160000190805190602001906200015f929190620004a4565b5060208201518160010160006101000a81548173ffffffffffffffffffffffffffffffffffffffff021916908373ffffffffffffffffffffffffffffffffffffffff16021790555060408201518160020155606082015181600301556080820151816004015560a0820151816005015560c0820151816006015560e08201518160070155505060096040518061010001604052806040518060400160405280600881526020017f4d6169736f6e20320000000000000000000000000000000000000000000000008152508152602001600073ffffffffffffffffffffffffffffffffffffffff168152602001600a8152602001600a815260200160008152602001600a8152602001600a8152602001600a81525090806001815401808255809150506001900390600052602060002090600802016000909190919091506000820151816000019080519060200190620002ba929190620004a4565b5060208201518160010160006101000a81548173ffffffffffffffffffffffffffffffffffffffff021916908373ffffffffffffffffffffffffffffffffffffffff16021790555060408201518160020155606082015181600301556080820151816004015560a0820151816005015560c0820151816006015560e08201518160070155505060096040518061010001604052806040518060400160405280600881526020017f4d6169736f6e20330000000000000000000000000000000000000000000000008152508152602001600073ffffffffffffffffffffffffffffffffffffffff168152602001601481526020016014815260200160008152602001600a8152602001600a8152602001600a8152509080600181540180825580915050600190039060005260206000209060080201600090919091909150600082015181600001908051906020019062000415929190620004a4565b5060208201518160010160006101000a81548173ffffffffffffffffffffffffffffffffffffffff021916908373ffffffffffffffffffffffffffffffffffffffff16021790555060408201518160020155606082015181600301556080820151816004015560a0820151816005015560c0820151816006015560e082015181600701555050505050620007f9565b828054620004b29062000704565b90600052602060002090601f016020900481019282620004d6576000855562000522565b82601f10620004f157805160ff191683800117855562000522565b8280016001018555821562000522579182015b828111156200052157825182559160200191906001019062000504565b5b50905062000531919062000535565b5090565b5b808211156200055057600081600090555060010162000536565b5090565b60006200056b62000565846200068e565b62000665565b9050828152602081018484840111156200058457600080fd5b62000591848285620006ce565b509392505050565b600082601f830112620005ab57600080fd5b8151620005bd84826020860162000554565b91505092915050565b600081519050620005d781620007df565b92915050565b600080600060608486031215620005f357600080fd5b600084015167ffffffffffffffff8111156200060e57600080fd5b6200061c8682870162000599565b935050602084015167ffffffffffffffff8111156200063a57600080fd5b620006488682870162000599565b92505060406200065b86828701620005c6565b9150509250925092565b60006200067162000684565b90506200067f82826200073a565b919050565b6000604051905090565b600067ffffffffffffffff821115620006ac57620006ab6200079f565b5b620006b782620007ce565b9050602081019050919050565b6000819050919050565b60005b83811015620006ee578082015181840152602081019050620006d1565b83811115620006fe576000848401525b50505050565b600060028204905060018216806200071d57607f821691505b6020821081141562000734576200073362000770565b5b50919050565b6200074582620007ce565b810181811067ffffffffffffffff821117156200076757620007666200079f565b5b80604052505050565b7f4e487b7100000000000000000000000000000000000000000000000000000000600052602260045260246000fd5b7f4e487b7100000000000000000000000000000000000000000000000000000000600052604160045260246000fd5b6000601f19601f8301169050919050565b620007ea81620006c4565b8114620007f657600080fd5b50565b6132ff80620008096000396000f3fe60806040526004361061011f5760003560e01c806370a08231116100a0578063b88d4fde11610064578063b88d4fde14610405578063c87b56dd1461042e578063d5abeb011461046b578063e985e9c514610496578063fd5f33ec146104d35761011f565b806370a082311461031457806395d89b4114610351578063a0712d681461037c578063a22cb46514610398578063aeda852f146103c15761011f565b806318160ddd116100e757806318160ddd1461021d57806323b872dd146102485780633107c99d1461027157806342842e0e146102ae5780636352211e146102d75761011f565b806301ffc9a71461012457806306fdde0314610161578063081812fc1461018c578063095ea7b3146101c957806313faede6146101f2575b600080fd5b34801561013057600080fd5b5061014b600480360381019061014691906123d0565b6104fe565b60405161015891906129ca565b60405180910390f35b34801561016d57600080fd5b506101766105e0565b60405161018391906129e5565b60405180910390f35b34801561019857600080fd5b506101b360048036038101906101ae9190612422565b610672565b6040516101c09190612941565b60405180910390f35b3480156101d557600080fd5b506101f060048036038101906101eb9190612394565b6106b8565b005b3480156101fe57600080fd5b506102076107d0565b6040516102149190612c2e565b60405180910390f35b34801561022957600080fd5b506102326107d6565b60405161023f9190612c2e565b60405180910390f35b34801561025457600080fd5b5061026f600480360381019061026a919061228e565b6107dc565b005b34801561027d57600080fd5b5061029860048036038101906102939190612422565b6108d2565b6040516102a59190612c0c565b60405180910390f35b3480156102ba57600080fd5b506102d560048036038101906102d0919061228e565b610a65565b005b3480156102e357600080fd5b506102fe60048036038101906102f99190612422565b610a85565b60405161030b9190612941565b60405180910390f35b34801561032057600080fd5b5061033b60048036038101906103369190612229565b610b0c565b6040516103489190612c2e565b60405180910390f35b34801561035d57600080fd5b50610366610bc4565b60405161037391906129e5565b60405180910390f35b61039660048036038101906103919190612422565b610c56565b005b3480156103a457600080fd5b506103bf60048036038101906103ba9190612358565b610de4565b005b3480156103cd57600080fd5b506103e860048036038101906103e39190612422565b610dfa565b6040516103fc989796959493929190612a07565b60405180910390f35b34801561041157600080fd5b5061042c600480360381019061042791906122dd565b610efa565b005b34801561043a57600080fd5b5061045560048036038101906104509190612422565b610f5c565b60405161046291906129e5565b60405180910390f35b34801561047757600080fd5b50610480610fc4565b60405161048d9190612c2e565b60405180910390f35b3480156104a257600080fd5b506104bd60048036038101906104b89190612252565b610fca565b6040516104ca91906129ca565b60405180910390f35b3480156104df57600080fd5b506104e861105e565b6040516104f591906129a8565b60405180910390f35b60007f80ac58cd000000000000000000000000000000000000000000000000000000007bffffffffffffffffffffffffffffffffffffffffffffffffffffffff1916827bffffffffffffffffffffffffffffffffffffffffffffffffffffffff191614806105c957507f5b5e139f000000000000000000000000000000000000000000000000000000007bffffffffffffffffffffffffffffffffffffffffffffffffffffffff1916827bffffffffffffffffffffffffffffffffffffffffffffffffffffffff1916145b806105d957506105d8826111e2565b5b9050919050565b6060600080546105ef90612e76565b80601f016020809104026020016040519081016040528092919081815260200182805461061b90612e76565b80156106685780601f1061063d57610100808354040283529160200191610668565b820191906000526020600020905b81548152906001019060200180831161064b57829003601f168201915b5050505050905090565b600061067d8261124c565b6004600083815260200190815260200160002060009054906101000a900473ffffffffffffffffffffffffffffffffffffffff169050919050565b60006106c382610a85565b90508073ffffffffffffffffffffffffffffffffffffffff168373ffffffffffffffffffffffffffffffffffffffff161415610734576040517f08c379a000000000000000000000000000000000000000000000000000000000815260040161072b90612bcc565b60405180910390fd5b8073ffffffffffffffffffffffffffffffffffffffff16610753611297565b73ffffffffffffffffffffffffffffffffffffffff16148061078257506107818161077c611297565b610fca565b5b6107c1576040517f08c379a00000000000000000000000000000000000000000000000000000000081526004016107b890612bec565b60405180910390fd5b6107cb838361129f565b505050565b60065481565b60085481565b6107ed6107e7611297565b82611358565b61082c576040517f08c379a000000000000000000000000000000000000000000000000000000000815260040161082390612b4c565b60405180910390fd5b81600960018361083c9190612d82565b81548110610873577f4e487b7100000000000000000000000000000000000000000000000000000000600052603260045260246000fd5b906000526020600020906008020160010160006101000a81548173ffffffffffffffffffffffffffffffffffffffff021916908373ffffffffffffffffffffffffffffffffffffffff1602179055506108cd8383836113ed565b505050565b6108da6120fd565b60096001836108e99190612d82565b81548110610920577f4e487b7100000000000000000000000000000000000000000000000000000000600052603260045260246000fd5b90600052602060002090600802016040518061010001604052908160008201805461094a90612e76565b80601f016020809104026020016040519081016040528092919081815260200182805461097690612e76565b80156109c35780601f10610998576101008083540402835291602001916109c3565b820191906000526020600020905b8154815290600101906020018083116109a657829003601f168201915b505050505081526020016001820160009054906101000a900473ffffffffffffffffffffffffffffffffffffffff1673ffffffffffffffffffffffffffffffffffffffff1673ffffffffffffffffffffffffffffffffffffffff16815260200160028201548152602001600382015481526020016004820154815260200160058201548152602001600682015481526020016007820154815250509050919050565b610a8083838360405180602001604052806000815250610efa565b505050565b600080610a91836116e7565b9050600073ffffffffffffffffffffffffffffffffffffffff168173ffffffffffffffffffffffffffffffffffffffff161415610b03576040517f08c379a0000000000000000000000000000000000000000000000000000000008152600401610afa90612bac565b60405180910390fd5b80915050919050565b60008073ffffffffffffffffffffffffffffffffffffffff168273ffffffffffffffffffffffffffffffffffffffff161415610b7d576040517f08c379a0000000000000000000000000000000000000000000000000000000008152600401610b7490612b6c565b60405180910390fd5b600360008373ffffffffffffffffffffffffffffffffffffffff1673ffffffffffffffffffffffffffffffffffffffff168152602001908152602001600020549050919050565b606060018054610bd390612e76565b80601f0160208091040260200160405190810160405280929190818152602001828054610bff90612e76565b8015610c4c5780601f10610c2157610100808354040283529160200191610c4c565b820191906000526020600020905b815481529060010190602001808311610c2f57829003601f168201915b5050505050905090565b60006008549050600754811115610c6c57600080fd5b600073ffffffffffffffffffffffffffffffffffffffff166009600184610c939190612d82565b81548110610cca577f4e487b7100000000000000000000000000000000000000000000000000000000600052603260045260246000fd5b906000526020600020906008020160010160009054906101000a900473ffffffffffffffffffffffffffffffffffffffff1673ffffffffffffffffffffffffffffffffffffffff1614610d1c57600080fd5b600654341015610d2b57600080fd5b336009600184610d3b9190612d82565b81548110610d72577f4e487b7100000000000000000000000000000000000000000000000000000000600052603260045260246000fd5b906000526020600020906008020160010160006101000a81548173ffffffffffffffffffffffffffffffffffffffff021916908373ffffffffffffffffffffffffffffffffffffffff1602179055506001600854610dd09190612d2c565b600881905550610de03383611724565b5050565b610df6610def611297565b8383611742565b5050565b60098181548110610e0a57600080fd5b9060005260206000209060080201600091509050806000018054610e2d90612e76565b80601f0160208091040260200160405190810160405280929190818152602001828054610e5990612e76565b8015610ea65780601f10610e7b57610100808354040283529160200191610ea6565b820191906000526020600020905b815481529060010190602001808311610e8957829003601f168201915b5050505050908060010160009054906101000a900473ffffffffffffffffffffffffffffffffffffffff16908060020154908060030154908060040154908060050154908060060154908060070154905088565b610f0b610f05611297565b83611358565b610f4a576040517f08c379a0000000000000000000000000000000000000000000000000000000008152600401610f4190612a8c565b60405180910390fd5b610f56848484846118af565b50505050565b6060610f678261124c565b6000610f7161190b565b90506000815111610f915760405180602001604052806000815250610fbc565b80610f9b84611922565b604051602001610fac92919061291d565b6040516020818303038152906040525b915050919050565b60075481565b6000600560008473ffffffffffffffffffffffffffffffffffffffff1673ffffffffffffffffffffffffffffffffffffffff16815260200190815260200160002060008373ffffffffffffffffffffffffffffffffffffffff1673ffffffffffffffffffffffffffffffffffffffff16815260200190815260200160002060009054906101000a900460ff16905092915050565b60606009805480602002602001604051908101604052809291908181526020016000905b828210156111d95783829060005260206000209060080201604051806101000160405290816000820180546110b690612e76565b80601f01602080910402602001604051908101604052809291908181526020018280546110e290612e76565b801561112f5780601f106111045761010080835404028352916020019161112f565b820191906000526020600020905b81548152906001019060200180831161111257829003601f168201915b505050505081526020016001820160009054906101000a900473ffffffffffffffffffffffffffffffffffffffff1673ffffffffffffffffffffffffffffffffffffffff1673ffffffffffffffffffffffffffffffffffffffff168152602001600282015481526020016003820154815260200160048201548152602001600582015481526020016006820154815260200160078201548152505081526020019060010190611082565b50505050905090565b60007f01ffc9a7000000000000000000000000000000000000000000000000000000007bffffffffffffffffffffffffffffffffffffffffffffffffffffffff1916827bffffffffffffffffffffffffffffffffffffffffffffffffffffffff1916149050919050565b61125581611a46565b611294576040517f08c379a000000000000000000000000000000000000000000000000000000000815260040161128b90612bac565b60405180910390fd5b50565b600033905090565b816004600083815260200190815260200160002060006101000a81548173ffffffffffffffffffffffffffffffffffffffff021916908373ffffffffffffffffffffffffffffffffffffffff160217905550808273ffffffffffffffffffffffffffffffffffffffff1661131283610a85565b73ffffffffffffffffffffffffffffffffffffffff167f8c5be1e5ebec7d5bd14f71427d1e84f3dd0314c0f7b2291e5b200ac8c7c3b92560405160405180910390a45050565b60008061136483610a85565b90508073ffffffffffffffffffffffffffffffffffffffff168473ffffffffffffffffffffffffffffffffffffffff1614806113a657506113a58185610fca565b5b806113e457508373ffffffffffffffffffffffffffffffffffffffff166113cc84610672565b73ffffffffffffffffffffffffffffffffffffffff16145b91505092915050565b8273ffffffffffffffffffffffffffffffffffffffff1661140d82610a85565b73ffffffffffffffffffffffffffffffffffffffff1614611463576040517f08c379a000000000000000000000000000000000000000000000000000000000815260040161145a90612acc565b60405180910390fd5b600073ffffffffffffffffffffffffffffffffffffffff168273ffffffffffffffffffffffffffffffffffffffff1614156114d3576040517f08c379a00000000000000000000000000000000000000000000000000000000081526004016114ca90612b0c565b60405180910390fd5b6114e08383836001611a87565b8273ffffffffffffffffffffffffffffffffffffffff1661150082610a85565b73ffffffffffffffffffffffffffffffffffffffff1614611556576040517f08c379a000000000000000000000000000000000000000000000000000000000815260040161154d90612acc565b60405180910390fd5b6004600082815260200190815260200160002060006101000a81549073ffffffffffffffffffffffffffffffffffffffff02191690556001600360008573ffffffffffffffffffffffffffffffffffffffff1673ffffffffffffffffffffffffffffffffffffffff168152602001908152602001600020600082825403925050819055506001600360008473ffffffffffffffffffffffffffffffffffffffff1673ffffffffffffffffffffffffffffffffffffffff16815260200190815260200160002060008282540192505081905550816002600083815260200190815260200160002060006101000a81548173ffffffffffffffffffffffffffffffffffffffff021916908373ffffffffffffffffffffffffffffffffffffffff160217905550808273ffffffffffffffffffffffffffffffffffffffff168473ffffffffffffffffffffffffffffffffffffffff167fddf252ad1be2c89b69c2b068fc378daa952ba7f163c4a11628f55a4df523b3ef60405160405180910390a46116e28383836001611a8d565b505050565b60006002600083815260200190815260200160002060009054906101000a900473ffffffffffffffffffffffffffffffffffffffff169050919050565b61173e828260405180602001604052806000815250611a93565b5050565b8173ffffffffffffffffffffffffffffffffffffffff168373ffffffffffffffffffffffffffffffffffffffff1614156117b1576040517f08c379a00000000000000000000000000000000000000000000000000000000081526004016117a890612b2c565b60405180910390fd5b80600560008573ffffffffffffffffffffffffffffffffffffffff1673ffffffffffffffffffffffffffffffffffffffff16815260200190815260200160002060008473ffffffffffffffffffffffffffffffffffffffff1673ffffffffffffffffffffffffffffffffffffffff16815260200190815260200160002060006101000a81548160ff0219169083151502179055508173ffffffffffffffffffffffffffffffffffffffff168373ffffffffffffffffffffffffffffffffffffffff167f17307eab39ab6107e8899845ad3d59bd9653f200f220920489ca2b5937696c31836040516118a291906129ca565b60405180910390a3505050565b6118ba8484846113ed565b6118c684848484611aee565b611905576040517f08c379a00000000000000000000000000000000000000000000000000000000081526004016118fc90612aac565b60405180910390fd5b50505050565b606060405180602001604052806000815250905090565b60606000600161193184611c85565b01905060008167ffffffffffffffff811115611976577f4e487b7100000000000000000000000000000000000000000000000000000000600052604160045260246000fd5b6040519080825280601f01601f1916602001820160405280156119a85781602001600182028036833780820191505090505b509050600082602001820190505b600115611a3b578080600190039150507f3031323334353637383961626364656600000000000000000000000000000000600a86061a8153600a8581611a25577f4e487b7100000000000000000000000000000000000000000000000000000000600052601260045260246000fd5b0494506000851415611a3657611a3b565b6119b6565b819350505050919050565b60008073ffffffffffffffffffffffffffffffffffffffff16611a68836116e7565b73ffffffffffffffffffffffffffffffffffffffff1614159050919050565b50505050565b50505050565b611a9d8383611ebc565b611aaa6000848484611aee565b611ae9576040517f08c379a0000000000000000000000000000000000000000000000000000000008152600401611ae090612aac565b60405180910390fd5b505050565b6000611b0f8473ffffffffffffffffffffffffffffffffffffffff166120da565b15611c78578373ffffffffffffffffffffffffffffffffffffffff1663150b7a02611b38611297565b8786866040518563ffffffff1660e01b8152600401611b5a949392919061295c565b602060405180830381600087803b158015611b7457600080fd5b505af1925050508015611ba557506040513d601f19601f82011682018060405250810190611ba291906123f9565b60015b611c28573d8060008114611bd5576040519150601f19603f3d011682016040523d82523d6000602084013e611bda565b606091505b50600081511415611c20576040517f08c379a0000000000000000000000000000000000000000000000000000000008152600401611c1790612aac565b60405180910390fd5b805181602001fd5b63150b7a0260e01b7bffffffffffffffffffffffffffffffffffffffffffffffffffffffff1916817bffffffffffffffffffffffffffffffffffffffffffffffffffffffff191614915050611c7d565b600190505b949350505050565b600080600090507a184f03e93ff9f4daa797ed6e38ed64bf6a1f0100000000000000008310611d09577a184f03e93ff9f4daa797ed6e38ed64bf6a1f0100000000000000008381611cff577f4e487b7100000000000000000000000000000000000000000000000000000000600052601260045260246000fd5b0492506040810190505b6d04ee2d6d415b85acef81000000008310611d6c576d04ee2d6d415b85acef81000000008381611d62577f4e487b7100000000000000000000000000000000000000000000000000000000600052601260045260246000fd5b0492506020810190505b662386f26fc100008310611dc157662386f26fc100008381611db7577f4e487b7100000000000000000000000000000000000000000000000000000000600052601260045260246000fd5b0492506010810190505b6305f5e1008310611e10576305f5e1008381611e06577f4e487b7100000000000000000000000000000000000000000000000000000000600052601260045260246000fd5b0492506008810190505b6127108310611e5b576127108381611e51577f4e487b7100000000000000000000000000000000000000000000000000000000600052601260045260246000fd5b0492506004810190505b60648310611ea45760648381611e9a577f4e487b7100000000000000000000000000000000000000000000000000000000600052601260045260246000fd5b0492506002810190505b600a8310611eb3576001810190505b80915050919050565b600073ffffffffffffffffffffffffffffffffffffffff168273ffffffffffffffffffffffffffffffffffffffff161415611f2c576040517f08c379a0000000000000000000000000000000000000000000000000000000008152600401611f2390612b8c565b60405180910390fd5b611f3581611a46565b15611f75576040517f08c379a0000000000000000000000000000000000000000000000000000000008152600401611f6c90612aec565b60405180910390fd5b611f83600083836001611a87565b611f8c81611a46565b15611fcc576040517f08c379a0000000000000000000000000000000000000000000000000000000008152600401611fc390612aec565b60405180910390fd5b6001600360008473ffffffffffffffffffffffffffffffffffffffff1673ffffffffffffffffffffffffffffffffffffffff16815260200190815260200160002060008282540192505081905550816002600083815260200190815260200160002060006101000a81548173ffffffffffffffffffffffffffffffffffffffff021916908373ffffffffffffffffffffffffffffffffffffffff160217905550808273ffffffffffffffffffffffffffffffffffffffff16600073ffffffffffffffffffffffffffffffffffffffff167fddf252ad1be2c89b69c2b068fc378daa952ba7f163c4a11628f55a4df523b3ef60405160405180910390a46120d6600083836001611a8d565b5050565b6000808273ffffffffffffffffffffffffffffffffffffffff163b119050919050565b60405180610100016040528060608152602001600073ffffffffffffffffffffffffffffffffffffffff1681526020016000815260200160008152602001600081526020016000815260200160008152602001600081525090565b600061216b61216684612c6e565b612c49565b90508281526020810184848401111561218357600080fd5b61218e848285612e34565b509392505050565b6000813590506121a58161326d565b92915050565b6000813590506121ba81613284565b92915050565b6000813590506121cf8161329b565b92915050565b6000815190506121e48161329b565b92915050565b600082601f8301126121fb57600080fd5b813561220b848260208601612158565b91505092915050565b600081359050612223816132b2565b92915050565b60006020828403121561223b57600080fd5b600061224984828501612196565b91505092915050565b6000806040838503121561226557600080fd5b600061227385828601612196565b925050602061228485828601612196565b9150509250929050565b6000806000606084860312156122a357600080fd5b60006122b186828701612196565b93505060206122c286828701612196565b92505060406122d386828701612214565b9150509250925092565b600080600080608085870312156122f357600080fd5b600061230187828801612196565b945050602061231287828801612196565b935050604061232387828801612214565b925050606085013567ffffffffffffffff81111561234057600080fd5b61234c878288016121ea565b91505092959194509250565b6000806040838503121561236b57600080fd5b600061237985828601612196565b925050602061238a858286016121ab565b9150509250929050565b600080604083850312156123a757600080fd5b60006123b585828601612196565b92505060206123c685828601612214565b9150509250929050565b6000602082840312156123e257600080fd5b60006123f0848285016121c0565b91505092915050565b60006020828403121561240b57600080fd5b6000612419848285016121d5565b91505092915050565b60006020828403121561243457600080fd5b600061244284828501612214565b91505092915050565b6000612457838361279f565b905092915050565b61246881612db6565b82525050565b61247781612db6565b82525050565b600061248882612caf565b6124928185612cdd565b9350836020820285016124a485612c9f565b8060005b858110156124e057848403895281516124c1858261244b565b94506124cc83612cd0565b925060208a019950506001810190506124a8565b50829750879550505050505092915050565b6124fb81612dc8565b82525050565b600061250c82612cba565b6125168185612cee565b9350612526818560208601612e43565b61252f81612f66565b840191505092915050565b61254381612e00565b82525050565b61255281612e00565b82525050565b600061256382612cc5565b61256d8185612cff565b935061257d818560208601612e43565b61258681612f66565b840191505092915050565b600061259c82612cc5565b6125a68185612d10565b93506125b6818560208601612e43565b6125bf81612f66565b840191505092915050565b60006125d582612cc5565b6125df8185612d21565b93506125ef818560208601612e43565b80840191505092915050565b6000612608602d83612d10565b915061261382612f77565b604082019050919050565b600061262b603283612d10565b915061263682612fc6565b604082019050919050565b600061264e602583612d10565b915061265982613015565b604082019050919050565b6000612671601c83612d10565b915061267c82613064565b602082019050919050565b6000612694602483612d10565b915061269f8261308d565b604082019050919050565b60006126b7601983612d10565b91506126c2826130dc565b602082019050919050565b60006126da600c83612d10565b91506126e582613105565b602082019050919050565b60006126fd602983612d10565b91506127088261312e565b604082019050919050565b6000612720602083612d10565b915061272b8261317d565b602082019050919050565b6000612743601883612d10565b915061274e826131a6565b602082019050919050565b6000612766602183612d10565b9150612771826131cf565b604082019050919050565b6000612789603d83612d10565b91506127948261321e565b604082019050919050565b60006101008301600083015184820360008601526127bd8282612558565b91505060208301516127d2602086018261245f565b5060408301516127e5604086018261253a565b5060608301516127f8606086018261253a565b50608083015161280b608086018261253a565b5060a083015161281e60a08601826128ff565b5060c083015161283160c08601826128ff565b5060e083015161284460e08601826128ff565b508091505092915050565b600061010083016000830151848203600086015261286d8282612558565b9150506020830151612882602086018261245f565b506040830151612895604086018261253a565b5060608301516128a8606086018261253a565b5060808301516128bb608086018261253a565b5060a08301516128ce60a08601826128ff565b5060c08301516128e160c08601826128ff565b5060e08301516128f460e08601826128ff565b508091505092915050565b61290881612e2a565b82525050565b61291781612e2a565b82525050565b600061292982856125ca565b915061293582846125ca565b91508190509392505050565b6000602082019050612956600083018461246e565b92915050565b6000608082019050612971600083018761246e565b61297e602083018661246e565b61298b604083018561290e565b818103606083015261299d8184612501565b905095945050505050565b600060208201905081810360008301526129c2818461247d565b905092915050565b60006020820190506129df60008301846124f2565b92915050565b600060208201905081810360008301526129ff8184612591565b905092915050565b6000610100820190508181036000830152612a22818b612591565b9050612a31602083018a61246e565b612a3e6040830189612549565b612a4b6060830188612549565b612a586080830187612549565b612a6560a083018661290e565b612a7260c083018561290e565b612a7f60e083018461290e565b9998505050505050505050565b60006020820190508181036000830152612aa5816125fb565b9050919050565b60006020820190508181036000830152612ac58161261e565b9050919050565b60006020820190508181036000830152612ae581612641565b9050919050565b60006020820190508181036000830152612b0581612664565b9050919050565b60006020820190508181036000830152612b2581612687565b9050919050565b60006020820190508181036000830152612b45816126aa565b9050919050565b60006020820190508181036000830152612b65816126cd565b9050919050565b60006020820190508181036000830152612b85816126f0565b9050919050565b60006020820190508181036000830152612ba581612713565b9050919050565b60006020820190508181036000830152612bc581612736565b9050919050565b60006020820190508181036000830152612be581612759565b9050919050565b60006020820190508181036000830152612c058161277c565b9050919050565b60006020820190508181036000830152612c26818461284f565b905092915050565b6000602082019050612c43600083018461290e565b92915050565b6000612c53612c64565b9050612c5f8282612ea8565b919050565b6000604051905090565b600067ffffffffffffffff821115612c8957612c88612f37565b5b612c9282612f66565b9050602081019050919050565b6000819050602082019050919050565b600081519050919050565b600081519050919050565b600081519050919050565b6000602082019050919050565b600082825260208201905092915050565b600082825260208201905092915050565b600082825260208201905092915050565b600082825260208201905092915050565b600081905092915050565b6000612d3782612e2a565b9150612d4283612e2a565b9250827fffffffffffffffffffffffffffffffffffffffffffffffffffffffffffffffff03821115612d7757612d76612ed9565b5b828201905092915050565b6000612d8d82612e2a565b9150612d9883612e2a565b925082821015612dab57612daa612ed9565b5b828203905092915050565b6000612dc182612e0a565b9050919050565b60008115159050919050565b60007fffffffff0000000000000000000000000000000000000000000000000000000082169050919050565b6000819050919050565b600073ffffffffffffffffffffffffffffffffffffffff82169050919050565b6000819050919050565b82818337600083830152505050565b60005b83811015612e61578082015181840152602081019050612e46565b83811115612e70576000848401525b50505050565b60006002820490506001821680612e8e57607f821691505b60208210811415612ea257612ea1612f08565b5b50919050565b612eb182612f66565b810181811067ffffffffffffffff82111715612ed057612ecf612f37565b5b80604052505050565b7f4e487b7100000000000000000000000000000000000000000000000000000000600052601160045260246000fd5b7f4e487b7100000000000000000000000000000000000000000000000000000000600052602260045260246000fd5b7f4e487b7100000000000000000000000000000000000000000000000000000000600052604160045260246000fd5b6000601f19601f8301169050919050565b7f4552433732313a2063616c6c6572206973206e6f7420746f6b656e206f776e6560008201527f72206f7220617070726f76656400000000000000000000000000000000000000602082015250565b7f4552433732313a207472616e7366657220746f206e6f6e20455243373231526560008201527f63656976657220696d706c656d656e7465720000000000000000000000000000602082015250565b7f4552433732313a207472616e736665722066726f6d20696e636f72726563742060008201527f6f776e6572000000000000000000000000000000000000000000000000000000602082015250565b7f4552433732313a20746f6b656e20616c7265616479206d696e74656400000000600082015250565b7f4552433732313a207472616e7366657220746f20746865207a65726f2061646460008201527f7265737300000000000000000000000000000000000000000000000000000000602082015250565b7f4552433732313a20617070726f766520746f2063616c6c657200000000000000600082015250565b7f4572726f72204552433732310000000000000000000000000000000000000000600082015250565b7f4552433732313a2061646472657373207a65726f206973206e6f74206120766160008201527f6c6964206f776e65720000000000000000000000000000000000000000000000602082015250565b7f4552433732313a206d696e7420746f20746865207a65726f2061646472657373600082015250565b7f4552433732313a20696e76616c696420746f6b656e2049440000000000000000600082015250565b7f4552433732313a20617070726f76616c20746f2063757272656e74206f776e6560008201527f7200000000000000000000000000000000000000000000000000000000000000602082015250565b7f4552433732313a20617070726f76652063616c6c6572206973206e6f7420746f60008201527f6b656e206f776e6572206f7220617070726f76656420666f7220616c6c000000602082015250565b61327681612db6565b811461328157600080fd5b50565b61328d81612dc8565b811461329857600080fd5b50565b6132a481612dd4565b81146132af57600080fd5b50565b6132bb81612e2a565b81146132c657600080fd5b5056fea26469706673582212204fe55c2b336d567a72e46aacf38289445713232de3d20a032aa7bfb9fa80c7fe64736f6c63430008020033",
  "immutableReferences": {},
  "source": "// SPDX-License-Identifier: MIT\r\npragma solidity ^0.8.0;\r\n\r\nimport \"@openzeppelin/contracts/token/ERC721/ERC721.sol\";\r\n\r\ncontract Terrain is ERC721 {\r\n    uint256 public cost = 1 ether;\r\n    uint256 public maxSupply = 5;\r\n    uint256 public totalSupply = 0;\r\n\r\n    struct House {\r\n        string name;\r\n        address owner;\r\n        int256 posX;\r\n        int256 posY;\r\n        int256 posZ;\r\n        uint256 sizeX;\r\n        uint256 sizeY;\r\n        uint256 sizeZ;\r\n    }\r\n\r\n    House[] public houses;\r\n\r\n    constructor(string memory _name, string memory _symbol, uint256 _cost) ERC721(_name, _symbol) {\r\n        cost = _cost;\r\n\r\n        houses.push(House(\"Maison 1\", address(0x0), 0, 0, 0, 10, 10, 10));\r\n        houses.push(House(\"Maison 2\", address(0x0), 10, 10, 0, 10, 10, 10));\r\n        houses.push(House(\"Maison 3\", address(0x0), 20, 20, 0, 10, 10, 10));\r\n    }\r\n\r\n    function mint(uint256 _id) public payable {\r\n        uint256 supply = totalSupply;\r\n        require(supply <= maxSupply);\r\n        require(houses[_id - 1].owner == address(0x0));\r\n        require(msg.value >= cost);\r\n\r\n        houses[_id - 1].owner = msg.sender;\r\n        totalSupply = totalSupply + 1;\r\n\r\n        _safeMint(msg.sender, _id);\r\n    }\r\n\r\n    function transferFrom(address from, address to, uint256 tokenId) public override {\r\n        require(\r\n            _isApprovedOrOwner(_msgSender(), tokenId),\r\n            \"Error ERC721\"\r\n        );\r\n\r\n        houses[tokenId - 1].owner = to;\r\n\r\n        _transfer(from, to, tokenId);\r\n    }\r\n\r\n    function getHouses() public view returns (House[] memory) {\r\n        return houses;\r\n    }\r\n\r\n    function getHouse(uint256 _id) public view returns (House memory) {\r\n        return houses[_id - 1];\r\n    }\r\n}",
  "sourcePath": "C:\\Users\\Doryan\\Downloads\\house\\src\\contracts\\Terrain.sol",
  "compiler": {
    "name": "solc",
    "version": "0.8.2+commit.661d1103.Emscripten.clang"
  },
  "schemaVersion": "3.4.14",
  "updatedAt": "2023-06-01T21:34:37.361Z",
  "networkType": "ethereum",
  "devdoc": {
    "kind": "dev",
    "methods": {
      "approve(address,uint256)": {
        "details": "See {IERC721-approve}."
      },
      "balanceOf(address)": {
        "details": "See {IERC721-balanceOf}."
      },
      "getApproved(uint256)": {
        "details": "See {IERC721-getApproved}."
      },
      "isApprovedForAll(address,address)": {
        "details": "See {IERC721-isApprovedForAll}."
      },
      "name()": {
        "details": "See {IERC721Metadata-name}."
      },
      "ownerOf(uint256)": {
        "details": "See {IERC721-ownerOf}."
      },
      "safeTransferFrom(address,address,uint256)": {
        "details": "See {IERC721-safeTransferFrom}."
      },
      "safeTransferFrom(address,address,uint256,bytes)": {
        "details": "See {IERC721-safeTransferFrom}."
      },
      "setApprovalForAll(address,bool)": {
        "details": "See {IERC721-setApprovalForAll}."
      },
      "supportsInterface(bytes4)": {
        "details": "See {IERC165-supportsInterface}."
      },
      "symbol()": {
        "details": "See {IERC721Metadata-symbol}."
      },
      "tokenURI(uint256)": {
        "details": "See {IERC721Metadata-tokenURI}."
      },
      "transferFrom(address,address,uint256)": {
        "details": "See {IERC721-transferFrom}."
      }
    },
    "version": 1
  },
  "userdoc": {
    "kind": "user",
    "methods": {},
    "version": 1
  }
}